:0B0627003031323334353637383900BB
:1004AC001203588F38E4F539E539C395385017C322
:1004BC00E5389539FF74072FF8E690062793FF125D
:0604CC0005AB053980E2DA
:0104D2002207
:100517001203588F27E4F528E528C3952750097F4C
:080527002A1205AB052880F043
:01052F0022A9
:10014300E4F527F528EF14B4100040030201DD9015
:10015300016075F003A4C58325F0C5837302019084
:100163000201980201A00201D80201A80201B00213
:1001730001B80201D80201C00201C80201D0020184
:10018300D80201D80201D80201D80201D87527008C
:100193007528018045752700752802803D75270065
:1001A3007528038035752700752804802D75270071
:1001B3007528058025752700752806801D7527007D
:1001C3007528078015752700752808800D75270089
:0E01D3007528098005E4F527F528AE27AF282A
:0101E10022FB
:10026E00E4F524F523F522F521F525F526F53B12C7
:10027E00063D1206441205D71205627FC87E001293
:10028E0004F7E53BB401F1E4F53BAF3A1201438EBE
:10029E00258F261204038F248E238D228C21E4FFBA
:1002AE0012061AAF24AE23AD22AC211205177F40E1
:1002BE007EE27D017C00AB24AA23A922A821C312D1
:1002CE00013270B47F0112061A7F4F1205AB7F4BBD
:0502DE001205AB80A336
:100403008F828E83E47F0AFEFDFCAB17AA16A91523
:10041300A814120015A804A905AA06AB07AE83AF5A
:1004230082EE3395E0FDFCEB2FF517EA3EF516E976
:0F0433003DF515E83CF514AF17AE16AD15FC22DC
:1004D3008F1B8E1A8D198C18AF1FAE1EAD1DAC1C51
:1004E300AB1BAA1AA919A818C312013270037F0102
:0404F300227F002242
:080358008F2C8E2B8D2A8C29BD
:10036000E4F52DF52EE47B0AFAF9F8AF2CAE2BADAF
:100370002AAC291200A0AF037408252DF8A60705A2
:100380002DAF2CAE2BAD2AAC29E47B0AFAF9F8127A
:1003900000A08F2C8E2B8D2A8C29E4FFFEFDFCAB58
:1003A0002CAA2BA92AA829D312013250B8E52D2551
:0403B0002EF52EFFF9
:0103B4002226
:030000000201E218
:0C01E200787FE4F6D8FD75813B0202290D
:07063D00D2A5C2A6D2A7223C
:10047B00E4FFFEC2A7D2A730A5050FBF00010EE413
:10048B00FDFCD2A6EF25E0FFEE33FEC2A630A5059C
:10049B000FBF00010E0DBD00010CED64074C70E2A7
:0104AB00222E
:0A05EB000830303132333435363732
:1005C300D29700120632C2977F0A120636C2967F6E
:0405D3000A020636DC
:0D060D00C29700120632D2977F0A0206360D
:0203B5008F2E89
:1003B700E4F52FAF2FE52EA807088002C333D8FC3A
:1003C70030E704D2978002C29700120632C2967FA6
:1003D7000A120636052FE52FC3940840D67F0A1266
:1003E7000636D2977F0A120636120632309704C2B3
:0C03F700008002D200C2967F0A02063687
:10044200E4F52ED297F52F7F0A120636C2967F0A5E
:10045200120636120632E52E25E0F52E30970205F9
:100462002E7F0A120636052FE52FC3940840D8C204
:08047200967F0A120636AF2E38
:01047A00225F
:10057B00200104C2978002D2977F0A120636120618
:08058B0032C2967F0A02063617
:0A02E3008F278D288B298A2A892B8A
:1002ED001205C3AF271203B5200002C322AF281297
:1002FD0003B5200002C3221205C3E52704FF120334
:10030D00B5200002C322E4F52DE52C14FFE52DC325
:10031D009F5021120442AB29AA2AA92BEF120003E8
:10032D00C20112057B7401252BF52BE4352AF52A24
:10033D00052D80D5120442AB29AA2AA92BEF120054
:0A034D0003D20112057B12060DD346
:010357002283
:05064400D296D29722BE
:04063200D2967F0AD3
:07063600AE071FEE70FA226F
:10053000E4FEC2A4EF30E704D2A38002C2A3D2A497
:08054000EF25E0FF0EBE08EA02
:010548002290
:10054900D3EF9400EE9400400F7DC77C01DCFEDD03
:08055900FAEF1F70EB1E80E8B1
:010561002277
:10059300C2A2C2A0C2A11205300527D2A20527C25A
:0805A300A27F017E0002054960
:1005AB00C2A2D2A0C2A11205300529D2A20529C22E
:0805BB00A27F017E0002054948
:0D061A00EF70047F8080027FC012059322E4
:1005D7007F381205937F0C1205937F061205937FD0
:0405E7000102059375
:0605F500013A4D013B003C
:1005FC00AE05AD077B007A0079308E2C7F7002023D
:01060C00E30A
:100562007D017F011205FCAF30EF600CC364809403
:08057200C15005753B018F3AF1
:01057A00225E
:1004F700E4FDFCC3ED9FEC9E5015E4FBFA0BBB003B
:0F050700010AEB643C4A70F50DBD00010C80E465
:0105160022C2
:1001EE0002026EE493A3F8E493A34003F68001F2B7
:1001FE0008DFF48029E493A3F85407240CC8C33312
:10020E00C4540F4420C8834004F456800146F6DFE0
:10021E00E4800B01020408102040809005EBE47E80
:10022E00019360BCA3FF543F30E509541FFEE493D5
:10023E00A360010ECF54C025E060A840B8E493A39C
:10024E00FAE493A3F8E493A3C8C582C8CAC583CAC7
:10025E00F0A3C8C582C8CAC583CADFE9DEE780BE7F
:0105FB0000FF
:10000300BB010689828A83F0225002F722BBFE01DC
:02001300F322D6
:10001500E88FF0A4CC8BF0A42CFCE98EF0A42CFC8A
:100025008AF0EDA42CFCEA8EF0A4CDA8F08BF0A408
:100035002DCC3825F0FDE98FF0A42CCD35F0FCEB67
:100045008EF0A4FEA9F0EB8FF0A4CFC5F02ECD392C
:0F005500FEE43CFCEAA42DCE35F0FDE43CFC2299
:1000640075F008758200EF2FFFEE33FECD33CDCC53
:1000740033CCC58233C5829BED9AEC99E5829840D6
:100084000CF582EE9BFEED9AFDEC99FC0FD5F0D6B3
:10009400E4CEFBE4CDFAE4CCF9A88222B800C1B9DD
:1000A4000059BA002DEC8BF084CFCECDFCE5F0CB1B
:1000B400F97818EF2FFFEE33FEED33FDEC33FCEB54
:1000C40033FB10D703994004EB99FB0FD8E5E4F90F
:1000D400FA227818EF2FFFEE33FEED33FDEC33FCFC
:1000E400C933C910D7059BE99A4007EC9BFCE99AF0
:1000F400F90FD8E0E4C9FAE4CCFB2275F010EF2F35
:10010400FFEE33FEED33FDCC33CCC833C810D70734
:100114009BEC9AE899400AED9BFDEC9AFCE899F86F
:0E0124000FD5F0DAE4CDFBE4CCFAE4C8F92202
:10013200EB9FF5F0EA9E42F0E99D42F0E89C45F023
:01014200229A
:00000001FF
