:03000000020830C3
:0C083000787FE4F6D8FD75813E02087761
:0B0B8D00303132333435363738390050
:100A24000E2900000000000000000000000000008B
:090A34000138000128000137001F
:100B2200E4FEC294EF30E704D2938002C293D294DF
:080B3200EF25E0FF0EBE08EA0A
:010B3A002298
:100B3B00D3EF9400EE9400400F7DC77C01DCFEDD0B
:080B4B00FAEF1F70EB1E80E8B9
:010B5300227F
:100B5400C292C290C291120B22053ED292053EC2AD
:080B6400927F017E00020B3BB1
:100AD0007C007D0A1208BC748D2FF582740B3EF5E4
:040AE00083E493FF19
:100AE400C292D290C291120B22053ED292053EC20E
:080AF400927F017E00020B3B22
:0D0B8000EF70047F8080027FC0120B5422B2
:100B6C007F38120B547F0C120B547F06120B547FE0
:040B7C0001020B5413
:100947007F01120B54E4FF120B80AE08AF09120AA5
:10095700D0AE08AF097C007D0A1208BC748D2DF556
:1009670082740B3C120ADF7F27120AE4AE0AAF0B30
:10097700120AD0AE0AAF0B7C007D0A1208BC748D38
:100987002DF582740B3C120ADF7F22120AE4AE0CAB
:10099700AF0D120AD0AE0CAF0D7C007D0A1208BC59
:1009A700748D2DF582740B3CF583E493FF020AE402
:10070200AE0EAF0F7C037DE81208BC8F29AE0EAF90
:100712000F7C007D641208BC7C007D0A1208BC8D2F
:100722002AAE0EAF0F7C007D0A1208BC7C007D0A47
:100732001208BC8D2BAE0EAF0F7C007D0A1208BCD6
:100742008D2CAE10AF117C007D0A1208BC8F2DAE2D
:1007520010AF117C007D0A1208BC8D2EAE12AF13B1
:100762007C007D0A1208BC8F2FAE12AF137C007D75
:100772000A1208BC8D30AE14AF157C007D0A120837
:10078200BC8F31AE14AF157C007D0A1208BC8D32CD
:10079200AE16AF177C007D0A1208BC8F33AE16AFBF
:1007A200177C007D0A1208BC8D34AE18AF197C008C
:1007B2007D0A1208BC8F35AE18AF197C007D0A1273
:1007C20008BC8D36E4FBEB7004FF120B80EB640473
:1007D2006003BB06057F2D120AE4BB08057F0112E8
:1007E2000B80EB640A6003BB0C057F3A120AE4EB50
:1007F20065387026E52864017020E537C3941940F6
:100802000DE53794324003E4F5377F2080167429D2
:100812002BF8E6900B8D93FF800A74292BF8E69053
:0D0822000B8D93FF120AE40BEB640E70992E
:01082F0022A6
:100AFC00758CD8758AF0758901D2A9D28CD2AF12B7
:100B0C000003120B6CE53B700512094780031207BA
:060B1C000212000E80EF42
:03000B000209B730
:1009B700C0E0C0F0C083C082C0D075D000C000C006
:0D09C70001C002C003C004C005C006C00787
:1009D400C2A9C28C758CD8758AF0D28C1205ADE58B
:1009E4003B7007E53C7003120A66E53B7013E5397A
:1009F400700F7F067808E4F608DFFC753C01753952
:050A0400010537D2A935
:100A0900D007D006D005D004D003D002D001D00041
:0B0A1900D0D0D082D083D0F0D0E032EB
:030A3D00013D3E3A
:07000300D295C296D29722AC
:100A9F00E4FFFEC297D2973095050FBF00010EE419
:100AAF00FDFCD296EF25E0FFEE33FEC296309505A2
:100ABF000FBF00010E0DBD00010CED64074C70E27D
:010ACF002204
:100A40000C1A07B2000100010000000000000608B7
:0C0A50000000000000000126000127004B
:1005AD000526E526646460030206DDF5260525E5CE
:1005BD002570020524643C452460030206DD0523F5
:1005CD00E52370020522E4F524F525E523643C4579
:1005DD002260030206DD0521E52170020520E4F508
:1005ED0022F523E5216418452060030206DD051F71
:1005FD00E51F7002051EE4F520F521E51D6401459A
:10060D001C6030E51D6403451C6028E51D6405452F
:10061D001C6020E51D6407451C6018E51D64084538
:10062D001C6010E51D640A451C6008E51D640C4541
:10063D001C7025E51F641F451E701D051DE51D70F1
:10064D0002051CE4F51EF51FE51D640C451C700824
:10065D00051BE51B7002051AE51D6404451C601899
:10066D00E51D6406451C6010E51D6409451C600808
:10067D00E51D640B451C7015E51F641E451E700DB0
:10068D00051DE51D7002051CE4F51EF51FC3E51DD6
:10069D009402E51C648094804036AE1AAF1B7C003A
:1006AD007D041208BCED4C7012E51F641D451E70D3
:1006BD001F051DE51D7014051C8010E51F641C45EC
:1006CD001E700D051DE51D7002051CE4F51EF51FC0
:1006DD00851A0E851B0F851C10851D11851E128513
:1006ED001F13852014852115852216852317852432
:0506FD001885251922FB
:100A66000527E527B40131050DE50D7002050CE4F7
:100A7600F527E50D6463450C701EF50CF50D050BA9
:100A8600E50B7002050A643C450A700CF50AF50B85
:090A96000509E5097002050822BA
:090A5C00013B01013901013C01DB
:10000E00120A9F8F3A7F647E00120B3B120A9F8F5B
:10001E003AE53AB4FE03E4F53BE53AB4FD0CE53CB3
:10002E007005753C018003E4F53CE53AB4FB0675BA
:10003E002801E4F539E53AB47F08E4F528F538757A
:10004E003B01E53AB4F7157F647E00120B3B153881
:10005E00C3E53864809480500375380DE53AB4EFEB
:10006E00157F647E00120B3B0538D3E5386480940F
:10007E008D4003E4F538E53A64DF6003020315E5CD
:10008E0028640160030203157F64FE120B3BE53802
:10009E007029AE1AAF1B7C037DE81208BCD3EF9417
:1000AE0008EE648094804007E4F51AF51B800C740A
:1000BE00E8251BF51B7403351AF51AE538B4012F24
:1000CE00AE1AAF1B7C007D641208BC7C007D0A1248
:1000DE0008BCD3ED9408EC648094804007E4F51AD4
:1000EE00F51B800B7464251BF51BE4351AF51AE518
:1000FE0038B4022FAE1AAF1B7C007D0A1208BC7CEE
:10010E00007D0A1208BCD3ED9408EC648094804004
:10011E0007E4F51AF51B800B740A251BF51BE43555
:10012E001AF51AE538B40325AE1AAF1B7C007D0A0A
:10013E001208BCD3ED9408EC648094804007E4F57B
:10014E001AF51B8008051BE51B7002051AE538B46D
:10015E00042FAE1CAF1D7C007D0A1208BC7C007DF6
:10016E000A1208BCD3ED9400EC648094804007E43E
:10017E00F51CF51D800B740A251DF51DE4351CF5C7
:10018E001CE538B40525AE1CAF1D7C007D0A120897
:10019E00BCD3ED9408EC648094804007E4F51CF524
:1001AE001D8008051DE51D7002051CE538B40628E6
:1001BE00AE1EAF1F7C007D0A1208BCD3EF9402EE78
:1001CE00648094804007E4F51EF51F800B740A25A9
:1001DE001FF51FE4351EF51EE538B40725AE1EAF1C
:1001EE001F7C007D0A1208BCD3ED9408EC64809449
:1001FE00804007E4F51EF51F8008051FE51F7002FD
:10020E00051EE538B40828AE20AF217C007D0A1209
:10021E0008BCD3EF9401EE648094804007E4F5208F
:10022E00F521800B740A2521F521E43520F520E512
:10023E0038B40925AE20AF217C007D0A1208BCD34C
:10024E00ED9408EC648094804007E4F520F521805D
:10025E00080521E52170020520E538B40A28AE22F2
:10026E00AF237C007D0A1208BCD3EF9404EE6480A9
:10027E0094804007E4F522F523800B740A2523F5BC
:10028E0023E43522F522E538B40B25AE22AF237CCC
:10029E00007D0A1208BCD3ED9408EC648094804073
:1002AE0007E4F522F52380080523E52370020522D5
:1002BE00E538B40C28AE24AF257C007D0A1208BCAC
:1002CE00D3EF9404EE648094804007E4F524F52582
:1002DE00800B740A2525F525E43524F524E538B47C
:1002EE000D25AE24AF257C007D0A1208BCD3ED94FB
:1002FE0008EC648094804007E4F524F52580080519
:10030E0025E52570020524E53A64BF60030205ACBD
:10031E00E528640160030205AC7F64FE120B3BE529
:10032E00387029AE1AAF1B7C037DE81208BCC3EFF0
:10033E009401EE648094805007E4F51AF51B800C4E
:10034E007418251BF51B74FC351AF51AE538B40123
:10035E0030AE1AAF1B7C007D641208BC7C007D0A97
:10036E001208BCC3ED9401EC648094805007E4F550
:10037E001AF51B800C749C251BF51B74FF351AF5A2
:10038E001AE538B40230AE1AAF1B7C007D0A120893
:10039E00BC7C007D0A1208BCC3ED9401EC64809411
:1003AE00805007E4F51AF51B800C74F6251BF51B1F
:1003BE0074FF351AF51AE538B40325AE1AAF1B7C57
:1003CE00007D0A1208BCC3ED9401EC648094805049
:1003DE0007E4F51AF51B8008E51B151B7002151AAC
:1003EE00E538B40430AE1CAF1D7C007D0A1208BC8B
:1003FE007C007D0A1208BCC3ED9401EC64809480ED
:10040E005007E4F51CF51D800C74F6251DF51D74C2
:10041E00FF351CF51CE538B40525AE1CAF1D7C0060
:10042E007D0A1208BCC3ED9401EC648094805007E1
:10043E00E4F51CF51D8008E51D151D7002151CE563
:10044E0038B40629AE1EAF1F7C007D0A1208BCC34D
:10045E00EF9401EE648094805007E4F51EF51F8042
:10046E000C74F6251FF51F74FF351EF51EE538B406
:10047E000725AE1EAF1F7C007D0A1208BCC3ED948B
:10048E0001EC648094805007E4F51EF51F8008E5AA
:10049E001F151F7002151EE538B40829AE20AF21B6
:1004AE007C007D0A1208BCC3EF9401EE6480948038
:1004BE005007E4F520F521800C74F62521F5217402
:1004CE00FF3520F520E538B40925AE20AF217C009C
:1004DE007D0A1208BCC3ED9401EC64809480500731
:1004EE00E4F520F5218008E521152170021520E59F
:1004FE0038B40A29AE22AF237C007D0A1208BCC391
:10050E00EF9401EE648094805007E4F522F5238089
:10051E000C74F62523F52374FF3522F522E538B445
:10052E000B25AE22AF237C007D0A1208BCC3ED94CE
:10053E0001EC648094805007E4F522F5238008E5F1
:10054E0023152370021522E538B40C29AE24AF25ED
:10055E007C007D0A1208BCC3EF9401EE6480948087
:10056E005007E4F524F525800C74F62525F5257441
:10057E00FF3524F524E538B40D24AE24AF257C00D8
:10058E007D0A1208BCC3ED9401EC64809480500681
:0F059E00E4F524F52522E5251525700215242204
:10083C00020AFCE493A3F8E493A34003F68001F2CC
:10084C0008DFF48029E493A3F85407240CC8C333BD
:10085C00C4540F4420C8834004F456800146F6DF8C
:10086C00E4800B0102040810204080900A24E47EEE
:10087C00019360BCA3FF543F30E509541FFEE49381
:10088C00A360010ECF54C025E060A840B8E493A348
:10089C00FAE493A3F8E493A3C8C582C8CAC583CA73
:1008AC00F0A3C8C582C8CAC583CADFE9DEE780BE2B
:010A65000090
:1008BC00C2D5EC30E709B2D5E4C39DFDE49CFCEE57
:1008CC0030E715B2D5E4C39FFFE49EFE1208F2C3D5
:1008DC00E49DFDE49CFC80031208F230D507C3E4D0
:0608EC009FFFE49EFE22C6
:1008F200BC000BBE0029EF8DF084FFADF022E4CCEA
:10090200F875F008EF2FFFEE33FEEC33FCEE9DECB2
:10091200984005FCEE9DFE0FD5F0E9E4CEFD22EDF8
:10092200F8F5F0EE8420D21CFEADF075F008EF2F42
:10093200FFED33FD4007985006D5F0F222C398FD33
:050942000FD5F0EA22D0
:00000001FF
